00COTAHIST.2018BOVESPA 20181018                                                                                                                                                                                                                      
012018101802AALR3       010ALLIAR      ON      NM   R$  000000000119800000000011980000000001173000000000118500000000011850000000001185000000000119000711000000000000578500000000000685738600000000000000009999123100000010000000000000BRAALRACNOR6100
012018101896AALR3F      020ALLIAR      ON      NM   R$  000000000119500000000012100000000001150000000000119200000000011920000000001189000000000119200016000000000000000274000000000000326805000000000000009999123100000010000000000000BRAALRACNOR6100
012018101862AALR3T      030ALLIAR      ON      NM032R$  000000000118800000000011890000000001188000000000118800000000011890000000000000000000000000000002000000000000002000000000000002377238000000000000009999123100000010000000000000BRAALRACNOR6100
012018101802AAPL34      010APPLE       DRN          R$  000000000811000000000081100000000007981000000000799400000000080030000000008003000000000850000006000000000000007300000000000058362800000000000000009999123100000010000000000000BRAAPLBDR004126
012018101896AAPL34F     020APPLE       DRN          R$  000000000859600000000085960000000008091000000000818000000000080910000000008091000000000850000018000000000000000154000000000001259780000000000000009999123100000010000000000000BRAAPLBDR004126
012018101802ABBV34      010ABBVIE      DRN ED       R$  000000003317800000000331780000000033178000000003317800000000331780000000000000000000000000000001000000000000000300000000000009953400000000000000009999123100000010000000000000BRABBVBDR001111
012018101802ABCB4       010ABC BRASIL  PN      N2   R$  000000000155000000000015570000000001510000000000153300000000015210000000001512000000000152101917000000000000314700000000000482635900000000000000009999123100000010000000000000BRABCBACNPR4130
012018101896ABCB4F      020ABC BRASIL  PN      N2   R$  000000000155200000000015590000000001511000000000153800000000015280000000001512000000000152800092000000000000001915000000000002945509000000000000009999123100000010000000000000BRABCBACNPR4130
012018101812ABCP11      010FII ABC IMOBCI           R$  000000000162500000000016650000000001622000000000164000000000016300000000001629000000000163000355000000000000017460000000000028650037000000000000009999123100000010000000000000BRABCPCTF000276
012018101802ABEV3       010AMBEV S/A   ON           R$  000000000170500000000017130000000001665000000000168500000000016650000000001665000000000166626756000000000014101200000000023761083400000000000000009999123100000010000000000000BRABEVACNOR1120
012018101896ABEV3F      020AMBEV S/A   ON           R$  000000000170700000000017130000000001669000000000168600000000016690000000001669000000000168501003000000000000019261000000000032476440000000000000009999123100000010000000000000BRABEVACNOR1120
012018101862ABEV3T      030AMBEV S/A   ON        018R$  000000000169900000000017000000000001670000000000168700000000016710000000000000000000000000000018000000000000032500000000000054840472000000000000009999123100000010000000000000BRABEVACNOR1120
012018101862ABEV3T      030AMBEV S/A   ON        032R$  000000000167400000000016750000000001674000000000167400000000016750000000000000000000000000000002000000000000000700000000000001172260000000000000009999123100000010000000000000BRABEVACNOR1120
012018101862ABEV3T      030AMBEV S/A   ON        040R$  000000000169400000000016950000000001694000000000169400000000016950000000000000000000000000000002000000000000000200000000000000338889000000000000009999123100000010000000000000BRABEVACNOR1120
012018101862ABEV3T      030AMBEV S/A   ON        060R$  000000000171400000000017150000000001682000000000170900000000016830000000000000000000000000000012000000000000042800000000000073164441000000000000009999123100000010000000000000BRABEVACNOR1120
012018101862ABEV3T      030AMBEV S/A   ON        090R$  000000000171300000000017140000000001703000000000171200000000017040000000000000000000000000000004000000000000003700000000000006336430000000000000009999123100000010000000000000BRABEVACNOR1120
012018101878ABEVC196    070ABEVE       ON        000R$  000000000003000000000000350000000000029000000000002900000000000300000000000000000000000000000006000000000000018100000000000000534500000000000195202019031800000010000000000000BRABEVACNOR1119
012018101878ABEVC201    070ABEVE       ON        000R$  000000000002500000000000260000000000025000000000002500000000000260000000000000000000000000000004000000000000020000000000000000510000000000000200202019031800000010000000000000BRABEVACNOR1119
012018101878ABEVD19     070ABEVE       ON        000R$  000000000002500000000000250000000000025000000000002500000000000250000000000000000000000000000002000000000001550000000000000038750000000000000195902019041500000010000000000000BRABEVACNOR1120
012018101878ABEVD48     070ABEVE       ON        000R$  000000000007500000000000750000000000075000000000007500000000000750000000000000000000000000000002000000000001550000000000000116250000000000000180902019041500000010000000000000BRABEVACNOR1120
012018101878ABEVK170    070ABEV  FM    ON        000R$  000000000005500000000000550000000000038000000000004100000000000380000000000036000000000029600030000000000000142100000000000005907100000000000170102018111900000010000000000000BRABEVACNOR1120
012018101878ABEVK177    070ABEVE       ON        000R$  000000000002100000000000220000000000019000000000002100000000000190000000000014000000000000000003000000000000015400000000000000325800000000000177602018111900000010000000000000BRABEVACNOR1120
012018101878ABEVK18     070ABEV  FM    ON        000R$  000000000003500000000000350000000000023000000000002900000000000240000000000023000000000002600024000000000000063800000000000001867700000000000175102018111900000010000000000000BRABEVACNOR1117
012018101878ABEVK180    070ABEV  FM    ON        000R$  000000000002000000000000200000000000013000000000001500000000000130000000000013000000000001600012000000000000010100000000000000161400000000000180102018111900000010000000000000BRABEVACNOR1120
012018101878ABEVK19     070ABEV        ON        000R$  000000000000500000000000060000000000004000000000000500000000000050000000000004000000000000700016000000000000031900000000000000161500000000000190102018111900000010000000000000BRABEVACNOR1120
012018101878ABEVK195    070ABEV        ON        000R$  000000000000800000000000080000000000004000000000000400000000000040000000000002000000000002100002000000000000006100000000000000024800000000000195102018111900000010000000000000BRABEVACNOR1120
012018101878ABEVK40     070ABEV        ON        000R$  000000000000200000000000030000000000002000000000000200000000000020000000000002000000000000300005000000000000006800000000000000014100000000000200102018111900000010000000000000BRABEVACNOR1117
012018101878ABEVK46     070ABEV  FM    ON        000R$  000000000008000000000000800000000000068000000000007000000000000680000000000000000000000000000009000000000000016000000000000001132900000000000165102018111900000010000000000000BRABEVACNOR1120
012018101878ABEVK77     070ABEVE       ON        000R$  000000000002800000000000280000000000028000000000002800000000000280000000000000000000000000000002000000000000010000000000000000280000000000000172602018111900000010000000000000BRABEVACNOR1120
012018101878ABEVK89     070ABEV  FM    ON        000R$  000000000001000000000000100000000000007000000000000800000000000070000000000007000000000002500010000000000000009300000000000000080300000000000185102018111900000010000000000000BRABEVACNOR1117
012018101878ABEVK91     070ABEVE       ON        000R$  000000000000100000000000010000000000001000000000000100000000000010000000000000000000000000000001000000000000003000000000000000003000000000000212602018111900000010000000000000BRABEVACNOR1117
012018101878ABEVL175    070ABEV  FM    ON        000R$  000000000005200000000000540000000000050000000000005100000000000500000000000041000000000011000007000000000000007700000000000000395200000000000173502018121700000010000000000000BRABEVACNOR1119
012018101878ABEVL18     070ABEV  FM    ON        000R$  000000000003900000000000390000000000029000000000003100000000000290000000000020000000000000000010000000000000019700000000000000627300000000000178502018121700000010000000000000BRABEVACNOR1117
012018101878ABEVL185    070ABEV  FM    ON        000R$  000000000002900000000000290000000000019000000000002400000000000190000000000001000000000000000003000000000000004000000000000000096000000000000183502018121700000010000000000000BRABEVACNOR1118
012018101878ABEVL188    070ABEV  FM    ON        000R$  000000000001800000000000180000000000018000000000001800000000000180000000000012000000000011900001000000000000000100000000000000001800000000000188502018121700000010000000000000BRABEVACNOR1120
012018101878ABEVL195    070ABEVE       ON        000R$  000000000001300000000000130000000000010000000000001100000000000120000000000010000000000000000076000000000000095800000000000001139600000000000191002018121700000010000000000000BRABEVACNOR1117
012018101878ABEVL222    070ABEVE       ON        000R$  000000000000200000000000020000000000002000000000000200000000000020000000000001000000000014000002000000000000002000000000000000004000000000000221002018121700000010000000000000BRABEVACNOR1119
012018101878ABEVL46     070ABEV  FM    ON        000R$  000000000007200000000000720000000000070000000000007100000000000720000000000000000000000000000003000000000000001300000000000000093200000000000168502018121700000010000000000000BRABEVACNOR1120
012018101878ABEVL48     070ABEVE       ON        000R$  000000000002900000000000290000000000029000000000002900000000000290000000000000000000000000000001000000000000002000000000000000058000000000000181002018121700000010000000000000BRABEVACNOR1117
012018101878ABEVL58     070ABEVE       ON        000R$  000000000004900000000000490000000000049000000000004900000000000490000000000000000000000000000001000000000000000500000000000000024500000000000176002018121700000010000000000000BRABEVACNOR1117
012018101878ABEVL80     070ABEV        ON        000R$  000000000000400000000000040000000000004000000000000400000000000040000000000003000000000000000002000000000000012500000000000000050000000000000203502018121700000010000000000000BRABEVACNOR1117
012018101878ABEVL81     070ABEV        ON        000R$  000000000000200000000000020000000000002000000000000200000000000020000000000001000000000000000001000000000000002000000000000000004000000000000213502018121700000010000000000000BRABEVACNOR1117
012018101878ABEVL95     070ABEV        ON        000R$  000000000000900000000000090000000000009000000000000900000000000090000000000002000000000000000001000000000000000500000000000000004500000000000193502018121700000010000000000000BRABEVACNOR1119
012018101878ABEVL97     070ABEVE       ON        000R$  000000000005800000000000580000000000055000000000005600000000000560000000000000000000000000000062000000000000061000000000000003444000000000000171002018121700000010000000000000BRABEVACNOR1117
012018101882ABEVP163    080ABEVE       ON        000R$  000000000005300000000000530000000000053000000000005300000000000530000000000000000000000000000002000000000001550000000000000082150000000000000163402019041500000010000000000000BRABEVACNOR1120
012018101882ABEVW16     080ABEVE       ON        000R$  000000000001600000000000220000000000016000000000001700000000000220000000000001000000000000000003000000000000005000000000000000086000000000000160102018111900000010000000000000BRABEVACNOR1120
012018101882ABEVW170    080ABEVE       ON        000R$  000000000004400000000000510000000000044000000000004400000000000510000000000020000000000010000007000000000000018200000000000000817500000000000170102018111900000010000000000000BRABEVACNOR1120
012018101882ABEVW177    080ABEVE  FM   ON        000R$  000000000010700000000001070000000000107000000000010700000000001070000000000000000000000000000001000000000000000200000000000000021400000000000177602018111900000010000000000000BRABEVACNOR1120
012018101882ABEVW45     080ABEVE       ON        000R$  000000000000700000000000070000000000007000000000000700000000000070000000000000000000000000000001000000000000001000000000000000007000000000000155102018111900000010000000000000BRABEVACNOR1120
012018101882ABEVW46     080ABEVE  FM   ON        000R$  000000000002800000000000330000000000028000000000003000000000000330000000000032000000000000000004000000000000008300000000000000250900000000000165102018111900000010000000000000BRABEVACNOR1120
012018101882ABEVW77     080ABEVE  FM   ON        000R$  000000000005400000000000540000000000054000000000005400000000000540000000000000000000000000000001000000000000000200000000000000010800000000000172602018111900000010000000000000BRABEVACNOR1120
012018101882ABEVW87     080ABEVE  FM   ON        000R$  000000000004500000000000510000000000045000000000004700000000000510000000000000000000000000000004000000000000021500000000000001022000000000000167602018111900000010000000000000BRABEVACNOR1117
012018101882ABEVX16     080ABEVE  FM   ON        000R$  000000000003300000000000330000000000033000000000003300000000000330000000000000000000000000000001000000000000000200000000000000006600000000000163502018121700000010000000000000BRABEVACNOR1120
012018101882ABEVX46     080ABEVE  FM   ON        000R$  000000000006400000000000650000000000064000000000006400000000000650000000000000000000000000000002000000000000001100000000000000070500000000000168502018121700000010000000000000BRABEVACNOR1120
012018101802ADHM3       010ADVANCED-DH ON           R$  000000000017800000000001820000000000169000000000017200000000001790000000000171000000000017900036000000000000040500000000000006980200000000000000009999123100000010000000000000BRADHMACNOR9101
012018101896ADHM3F      020ADVANCED-DH ON           R$  000000000017500000000001800000000000170000000000017500000000001800000000000171000000000018000004000000000000000104000000000000018250000000000000009999123100000010000000000000BRADHMACNOR9101
012018101812AEFI11      010FII AESAPAR CI           R$  000000001428800000000144090000000014288000000001437000000000143500000000014350000000001437600100000000000000001950000000000028023062000000000000009999123100000010000000000000BRAEFICTF002182
012018101802AETB34      010AETNA INC   DRN          R$  000000007456300000000745630000000074563000000007456300000000745630000000000000000000000000000001000000000000000300000000000022368900000000000000009999123100000010000000000000BRAETBBDR009108
012018101812AGCX11      010FII AG CAIXACI           R$  000000010599900000001069990000000105999000000010631300000001060000000000106000000000010650000047000000000000000175000000000018604809000000000000009999123100000010000000000000BRAGCXCTF003171
012018101802AGRO3       010BRASILAGRO  ON  ED  NM   R$  000000000137200000000013720000000001340000000000134800000000013450000000001345000000000135500090000000000000022000000000000029672000000000000000009999123100000010000000000000BRAGROACNOR7108
012018101896AGRO3F      020BRASILAGRO  ON  ED  NM   R$  000000000135100000000014000000000001346000000000136100000000014000000000001350000000000141000016000000000000000276000000000000375740000000000000009999123100000010000000000000BRAGROACNOR7108
012018101812ALMI11      010FII TORRE ALCI           R$  000000012200100000001239980000000122001000000012297200000001235000000000123500000000012397800023000000000000000036000000000004426996000000000000009999123100000010000000000000BRALMICTF003250
012018101802ALPA4       010ALPARGATAS  PN      N1   R$  000000000134300000000013700000000001329000000000135500000000013500000000001350000000000136100724000000000000247900000000000335933300000000000000009999123100000010000000000000BRALPAACNPR7227
012018101896ALPA4F      020ALPARGATAS  PN      N1   R$  000000000135000000000013650000000001335000000000135000000000013650000000001355000000000136500033000000000000000881000000000001189841000000000000009999123100000010000000000000BRALPAACNPR7227
012018101862ALPA4T      030ALPARGATAS  PN      N1090R$  000000000137000000000013710000000001370000000000137000000000013710000000000000000000000000000002000000000000000800000000000001096740000000000000009999123100000010000000000000BRALPAACNPR7227
012018101802ALSC3       010ALIANSCE    ON      NM   R$  000000000171200000000017120000000001692000000000169800000000016920000000001692000000000169301497000000000000293500000000000498440500000000000000009999123100000010000000000000BRALSCACNOR0111
012018101896ALSC3F      020ALIANSCE    ON      NM   R$  000000000171200000000017120000000001700000000000170200000000017000000000001698000000000171200005000000000000000112000000000000190660000000000000009999123100000010000000000000BRALSCACNOR0111
012018101802ALUP11      010ALUPAR      UNT     N2   R$  000000000166900000000016860000000001656000000000167000000000016650000000001665000000000167401894000000000000366100000000000611563500000000000000009999123100000010000000000000BRALUPCDAM15108
012018101896ALUP11F     020ALUPAR      UNT     N2   R$  000000000168900000000016890000000001665000000000167300000000016700000000001665000000000167000024000000000000000537000000000000898474000000000000009999123100000010000000000000BRALUPCDAM15108
012018101802ALUP3       010ALUPAR      ON      N2   R$  000000000069100000000006910000000000691000000000069100000000006910000000000690000000000073400002000000000000000200000000000000138200000000000000009999123100000010000000000000BRALUPACNOR8108
012018101896ALUP3F      020ALUPAR      ON      N2   R$  000000000068000000000006800000000000680000000000068000000000006800000000000690000000000075000001000000000000000013000000000000008840000000000000009999123100000010000000000000BRALUPACNOR8108
012018101802ALUP4       010ALUPAR      PN      N2   R$  000000000050000000000005000000000000490000000000049700000000004900000000000490000000000050000002000000000000001400000000000000696000000000000000009999123100000010000000000000BRALUPACNPR5108
012018101896ALUP4F      020ALUPAR      PN      N2   R$  000000000050000000000005500000000000500000000000052900000000005500000000000480000000000051000003000000000000000037000000000000019600000000000000009999123100000010000000000000BRALUPACNPR5108
012018101812ALZR11      010FII ALIANZA CI           R$  000000000915000000000091700000000009075000000000910100000000091690000000009135000000000917000080000000000000002358000000000021461285000000000000009999123100000010000000000000BRALZRCTF006108
012018101802AMAR3       010LOJAS MARISAON      NM   R$  000000000047100000000004940000000000463000000000048100000000004700000000000469000000000047001310000000000000872700000000000420567800000000000000009999123100000010000000000000BRAMARACNOR4112
012018101896AMAR3F      020LOJAS MARISAON      NM   R$  000000000047800000000004910000000000466000000000048000000000004690000000000463000000000046900114000000000000002531000000000001215983000000000000009999123100000010000000000000BRAMARACNOR4112
012018101802AMGN34      010AMGEN       DRN          R$  000000007472000000000747200000000074720000000007472000000000747200000000000000000000000000000001000000000000000200000000000014944000000000000000009999123100000010000000000000BRAMGNBDR004127
012018101802AMZO34      010AMAZON      DRN          R$  000000032879000000003298860000000328790000000032933800000003298860000000000000000000000000000002000000000000000200000000000065867600000000000000009999123100000010000000000000BRAMZOBDR002101
012018101896AMZO34F     020AMAZON      DRN          R$  000000033800000000003380010000000331900000000033773400000003319000000000331900000000034399900007000000000000000023000000000007767901000000000000009999123100000010000000000000BRAMZOBDR002101
012018101802ANIM3       010ANIMA       ON      NM   R$  000000000156800000000016080000000001563000000000158300000000015990000000001598000000000159900958000000000000233300000000000369402300000000000000009999123100000010000000000000BRANIMACNOR6105
012018101896ANIM3F      020ANIMA       ON      NM   R$  000000000156900000000016010000000001569000000000158800000000015900000000001464000000000158900016000000000000000533000000000000846732000000000000009999123100000010000000000000BRANIMACNOR6105
012018101802ARMT34      010ARCELOR     DRN          R$  000000000512900000000051290000000005129000000000512900000000051290000000000000000000000000000001000000000000000300000000000001538700000000000000009999123100000010000000000000BRARMTBDR008116
012018101802ARZZ3       010AREZZO CO   ON  ED  NM   R$  000000000458000000000046050000000004485000000000453300000000045330000000004532000000000453900673000000000000110800000000000502361300000000000000009999123100000010000000000000BRARZZACNOR3131
012018101896ARZZ3F      020AREZZO CO   ON  ED  NM   R$  000000000461800000000046180000000004492000000000454600000000045360000000004519000000000453600028000000000000000693000000000003150969000000000000009999123100000010000000000000BRARZZACNOR3131
012018101802ATOM3       010ATOMPAR     ON           R$  000000000027800000000002800000000000269000000000027400000000002730000000000272000000000027300070000000000000033200000000000009106900000000000000009999123100000010000000000000BRATOMACNOR1103
012018101896ATOM3F      020ATOMPAR     ON           R$  000000000027200000000002720000000000272000000000027200000000002720000000000268000000000028400003000000000000000007000000000000001904000000000000009999123100000010000000000000BRATOMACNOR1103
012018101862ATOM3T      030ATOMPAR     ON        090R$  000000000027500000000002760000000000273000000000027400000000002740000000000000000000000000000006000000000000002300000000000000632290000000000000009999123100000010000000000000BRATOMACNOR1103
012018101812ATSA11      010FII CSHGATSACI           R$  000000001000000000000100450000000010000000000001001500000000100450000000010000000000001004500012000000000000000426000000000004266750000000000000009999123100000010000000000000BRATSACTF000120
012018101802ATTB34      010ATT INC     DRN ED       R$  000000001196800000000120300000000011968000000001197200000000120300000000012030000000000000000002000000000000002600000000000031129200000000000000009999123100000010000000000000BRATTBBDR007125
012018101896AXPB34F     020AMERICAN EXPDRN          R$  000000003837800000000383780000000038378000000003837800000000383780000000000000000000000000000001000000000000000035000000000001343230000000000000009999123100000010000000000000BRAXPBBDR007126
012018101802AZEV4       010AZEVEDO     PN           R$  000000000020600000000003520000000000206000000000031800000000003520000000000349000000000035200780000000000000343400000000000109491700000000000000009999123100000010000000000000BRAZEVACNPR7116
012018101896AZEV4F      020AZEVEDO     PN           R$  000000000018000000000003520000000000180000000000031900000000003520000000000320000000000035200057000000000000001047000000000000334368000000000000009999123100000010000000000000BRAZEVACNPR7116
012018101802AZUL4       010AZUL        PN      N2   R$  000000000282500000000029000000000002784000000000284500000000028340000000002828000000000283412415000000000002966400000000008440221100000000000000009999123100000010000000000000BRAZULACNPR4100
012018101896AZUL4F      020AZUL        PN      N2   R$  000000000285800000000028860000000002793000000000285100000000028630000000002793000000000286400046000000000000001283000000000003658512000000000000009999123100000010000000000000BRAZULACNPR4100
012018101802B3SA3       010B3          ON      NM   R$  000000000250700000000025190000000002427000000000245800000000024270000000002426000000000242723982000000000015195600000000037357286500000000000000009999123100000010000000000000BRB3SAACNOR6103
012018101896B3SA3F      020B3          ON      NM   R$  000000000253000000000025300000000002427000000000246300000000024290000000002425000000000242900207000000000000005568000000000013715787000000000000009999123100000010000000000000BRB3SAACNOR6103
012018101862B3SA3T      030B3          ON      NM018R$  000000000248300000000024840000000002483000000000248300000000024840000000000000000000000000000002000000000000001000000000000002483649000000000000009999123100000010000000000000BRB3SAACNOR6103
012018101862B3SA3T      030B3          ON      NM032R$  000000000244300000000024440000000002443000000000244300000000024440000000000000000000000000000002000000000000000200000000000000488715000000000000009999123100000010000000000000BRB3SAACNOR6103
012018101878B3SAA25     070B3SA        ON      NM000R$  000000000017800000000001780000000000178000000000017800000000001780000000000000000000000000000001000000000000002300000000000000409400000000000250802019012100000010000000000000BRB3SAACNOR6103
012018101878B3SAA283    070B3SAE       ON      NM000R$  000000000005000000000000500000000000050000000000005000000000000500000000000000000000000000000001000000000000002300000000000000115000000000000283302019012100000010000000000000BRB3SAACNOR6103
012018101878B3SAE23     070B3SA        ON      NM000R$  000000000040000000000004000000000000400000000000040000000000004000000000000000000000000000000001000000000000180000000000000072000000000000000226602019052000000010000000000000BRB3SAACNOR6101
012018101878B3SAF261    070B3SA        ON      NM000R$  000000000020000000000002000000000000200000000000020000000000002000000000000000000000000000000001000000000000180000000000000036000000000000000261602019061700000010000000000000BRB3SAACNOR6103
012018101878B3SAK221    070B3SA        ON      NM000R$  000000000032000000000003200000000000320000000000032000000000003200000000000000000000000000000001000000000000001100000000000000352000000000000218602018111900000010000000000000BRB3SAACNOR6102
012018101878B3SAK240    070B3SA  FM    ON      NM000R$  000000000016500000000001650000000000152000000000016300000000001520000000000000000000000000000005000000000000011900000000000001940000000000000238602018111900000010000000000000BRB3SAACNOR6102
012018101878B3SAK250    070B3SA  FM    ON      NM000R$  000000000011700000000001170000000000090000000000010100000000000900000000000040000000000017800018000000000000070300000000000007124500000000000248602018111900000010000000000000BRB3SAACNOR6102
012018101878B3SAK260    070B3SA  FM    ON      NM000R$  000000000008500000000000850000000000059000000000006900000000000590000000000015000000000005600005000000000000009000000000000000625000000000000258602018111900000010000000000000BRB3SAACNOR6102
012018101878B3SAK270    070B3SA  FM    ON      NM000R$  000000000004100000000000410000000000030000000000003200000000000300000000000021000000000003700041000000000000077300000000000002549600000000000268602018111900000010000000000000BRB3SAACNOR6102
012018101878B3SAK56     070B3SAE       ON      NM000R$  000000000007400000000000740000000000068000000000007100000000000680000000000000000000000009800003000000000000010000000000000000714000000000000256102018111900000010000000000000BRB3SAACNOR6100
012018101878B3SAK58     070B3SA  FM    ON      NM000R$  000000000001600000000000160000000000012000000000001200000000000120000000000010000000000002000003000000000000012000000000000000148000000000000283602018111900000010000000000000BRB3SAACNOR6102
012018101878B3SAL24     070B3SA        ON      NM000R$  000000000016000000000001600000000000160000000000016000000000001600000000000000000000000000000001000000000000001000000000000000160000000000000242902018121700000010000000000000BRB3SAACNOR6102
012018101878B3SAL253    070B3SAE       ON      NM000R$  000000000015000000000001500000000000150000000000015000000000001500000000000000000000000000000001000000000000000200000000000000030000000000000250402018121700000010000000000000BRB3SAACNOR6101
012018101878B3SAL256    070B3SAE       ON      NM000R$  000000000010500000000001050000000000105000000000010500000000001050000000000000000000000000000001000000000000000700000000000000073500000000000255402018121700000010000000000000BRB3SAACNOR6102
012018101878B3SAL282    070B3SA  FM    ON      NM000R$  000000000004100000000000410000000000031000000000003500000000000310000000000028000000000055300005000000000000001800000000000000064300000000000282902018121700000010000000000000BRB3SAACNOR6103
012018101882B3SAM209    080B3SAE       ON      NM000R$  000000000004000000000000400000000000040000000000004000000000000400000000000000000000000000000002000000000000005000000000000000200000000000000208302019012100000010000000000000BRB3SAACNOR6102
012018101882B3SAR246    080B3SAE       ON      NM000R$  000000000020000000000002000000000000200000000000020000000000002000000000000000000000000000000001000000000000180000000000000036000000000000000246602019061700000010000000000000BRB3SAACNOR6103
012018101882B3SAW210    080B3SAE       ON      NM000R$  000000000001000000000000260000000000010000000000001600000000000160000000000010000000000003900004000000000000000600000000000000010000000000000208602018111900000010000000000000BRB3SAACNOR6102
012018101882B3SAW230    080B3SAE  FM   ON      NM000R$  000000000004400000000000480000000000044000000000004500000000000470000000000020000000000000000005000000000000006500000000000000295100000000000228602018111900000010000000000000BRB3SAACNOR6102
012018101882B3SAW235    080B3SAE       ON      NM000R$  000000000004500000000000620000000000045000000000005800000000000620000000000000000000000000000004000000000000043900000000000002568800000000000233602018111900000010000000000000BRB3SAACNOR6102
012018101882B3SAW237    080B3SAE       ON      NM000R$  000000000007300000000000730000000000073000000000007300000000000730000000000000000000000010000001000000000000000500000000000000036500000000000236102018111900000010000000000000BRB3SAACNOR6102
012018101882B3SAW240    080B3SAE  FM   ON      NM000R$  000000000006600000000000830000000000066000000000007100000000000830000000000000000000000000000005000000000000013300000000000000957300000000000238602018111900000010000000000000BRB3SAACNOR6102
012018101882B3SAW245    080B3SAE       ON      NM000R$  000000000010100000000001070000000000101000000000010600000000001050000000000000000000000014000008000000000000021000000000000002244400000000000243602018111900000010000000000000BRB3SAACNOR6102
012018101882B3SAW250    080B3SAE  FM   ON      NM000R$  000000000011000000000001100000000000109000000000010900000000001090000000000000000000000000000002000000000000005600000000000000614400000000000248602018111900000010000000000000BRB3SAACNOR6102
012018101882B3SAX219    080B3SAE       ON      NM000R$  000000000004000000000000400000000000040000000000004000000000000400000000000000000000000000000001000000000000000200000000000000008000000000000217902018121700000010000000000000BRB3SAACNOR6102
012018101882B3SAX253    080B3SAE       ON      NM000R$  000000000014500000000001450000000000145000000000014500000000001450000000000000000000000000000001000000000000000100000000000000014500000000000250402018121700000010000000000000BRB3SAACNOR6101
012018101882B3SAX53     080B3SAE  FM   ON      NM000R$  000000000008800000000000880000000000088000000000008800000000000880000000000000000000000000000001000000000000003800000000000000334400000000000237902018121700000010000000000000BRB3SAACNOR6102
012018101882B3SAX54     080B3SAE  FM   ON      NM000R$  000000000012700000000001540000000000127000000000014000000000001540000000000000000000000000000002000000000000007200000000000001011600000000000247902018121700000010000000000000BRB3SAACNOR6102
012018101802BAHI3       010BAHEMA      ON      MA   R$  000000001351000000000139500000000013500000000001377000000000139450000000013500000000001394900005000000000000000500000000000006885400000000000000009999123100000010000000000000BRBAHIACNOR1070
012018101896BAHI3F      020BAHEMA      ON      MA   R$  000000001424800000000142480000000014248000000001424800000000142480000000013500000000001424800001000000000000000001000000000000014248000000000000009999123100000010000000000000BRBAHIACNOR1070
012018101896BAUH4F      020EXCELSIOR   PN           R$  000000000119100000000011910000000001191000000000119100000000011910000000001105000000000119100001000000000000000008000000000000009528000000000000009999123100000010000000000000BRBAUHACNPR3113
012018101802BAZA3       010AMAZONIA    ON           R$  000000000240000000000024000000000002332000000000239300000000023330000000002332000000000240000005000000000000002200000000000005266500000000000000009999123100000010000000000000BRBAZAACNOR0172
012018101896BAZA3F      020AMAZONIA    ON           R$  000000000230000000000023000000000002300000000000230000000000023000000000002300000000000241000002000000000000000045000000000000103500000000000000009999123100000010000000000000BRBAZAACNOR0172
012018101802BBAS3       010BRASIL      ON      NM   R$  000000000393200000000039980000000003922000000000395700000000039250000000003925000000000393025135000000000015863700000000062773410400000000000000009999123100000010000000000000BRBBASACNOR3279
012018101896BBAS3F      020BRASIL      ON      NM   R$  000000000393200000000039960000000003915000000000395400000000039300000000003930000000000394200359000000000000008677000000000034311846000000000000009999123100000010000000000000BRBBASACNOR3279
012018101862BBAS3T      030BRASIL      ON      NM036R$  000000000396200000000039630000000003952000000000395700000000039530000000000000000000000000000004000000000000020000000000000079150200000000000000009999123100000010000000000000BRBBASACNOR3279
012018101862BBAS3T      030BRASIL      ON      NM090R$  000000000403100000000040320000000004031000000000403100000000040320000000000000000000000000000002000000000000000100000000000000403193000000000000009999123100000010000000000000BRBBASACNOR3279
012018101878BBASA398    070BBASE       ON      NM000R$  000000000029000000000002950000000000290000000000029400000000002950000000000000000000000050000010000000000000057000000000000016810000000000000399202019012100000010000000000000BRBBASACNOR3278
012018101878BBASB431    070BBASE       ON      NM000R$  000000000024500000000002450000000000245000000000024500000000002450000000000000000000000000000001000000000000073000000000000017885000000000000431002019021800000010000000000000BRBBASACNOR3279
012018101878BBASD421    070BBAS        ON      NM000R$  000000000030100000000003140000000000301000000000030900000000003140000000000000000000000000000006000000000000000600000000000000185600000000000416102019041500000010000000000000BRBBASACNOR3275
012018101878BBASE359    070BBASE       ON      NM000R$  000000000075000000000007500000000000750000000000075000000000007500000000000000000000000000000002000000000000001900000000000001425000000000000354302019052000000010000000000000BRBBASACNOR3275
012018101878BBASE434    070BBASE       ON      NM000R$  000000000030000000000003000000000000300000000000030000000000003000000000000000000000000000000001000000000000000100000000000000030000000000000429302019052000000010000000000000BRBBASACNOR3275
012018101878BBASE57     070BBAS        ON      NM000R$  000000000141000000000014200000000001410000000000141100000000014140000000000000000000000000000006000000000000001500000000000002117600000000000261802019052000000010000000000000BRBBASACNOR3269
012018101878BBASK29     070BBAS        ON      NM000R$  000000000002600000000000300000000000016000000000002000000000000300000000000021000000000003000010000000000000007200000000000000145800000000000479102018111900000010000000000000BRBBASACNOR3271
012018101878BBASK337    070BBAS        ON      NM000R$  000000000065900000000006590000000000629000000000064900000000006290000000000621000000000000000004000000000000003000000000000001947000000000000334102018111900000010000000000000BRBBASACNOR3276
012018101878BBASK339    070BBASE       ON      NM000R$  000000000065000000000006500000000000650000000000065000000000006500000000000300000000000000000001000000000000000100000000000000065000000000000336602018111900000010000000000000BRBBASACNOR3277
012018101878BBASK342    070BBAS        ON      NM000R$  000000000061300000000006130000000000613000000000061300000000006130000000000000000000000070000001000000000000000100000000000000061300000000000339102018111900000010000000000000BRBBASACNOR3277
012018101878BBASK347    070BBAS        ON      NM000R$  000000000060000000000006000000000000600000000000060000000000006000000000000450000000000060000003000000000000004500000000000002700000000000000344102018111900000010000000000000BRBBASACNOR3277
012018101878BBASK349    070BBASE       ON      NM000R$  000000000053000000000005300000000000530000000000053000000000005300000000000340000000000000000001000000000000000800000000000000424000000000000346602018111900000010000000000000BRBBASACNOR3277
012018101878BBASK364    070BBAS        ON      NM000R$  000000000046600000000004660000000000466000000000046600000000004660000000000390000000000049900001000000000000000500000000000000233000000000000359102018111900000010000000000000BRBBASACNOR3275
012018101878BBASK372    070BBAS        ON      NM000R$  000000000037000000000004000000000000350000000000038300000000003600000000000355000000000037000220000000000000134500000000000051616700000000000369102018111900000010000000000000BRBBASACNOR3277
012018101878BBASK380    070BBASE       ON      NM000R$  000000000032000000000003200000000000320000000000032000000000003200000000000000000000000000000001000000000000002000000000000000640000000000000376602018111900000010000000000000BRBBASACNOR3277
012018101878BBASK382    070BBAS  FM    ON      NM000R$  000000000029300000000003230000000000293000000000030500000000003220000000000260000000000049800003000000000000002300000000000000703400000000000379102018111900000010000000000000BRBBASACNOR3277
012018101878BBASK389    070BBAS        ON      NM000R$  000000000027000000000002700000000000269000000000026900000000002690000000000130000000000039000002000000000000001800000000000000484500000000000384102018111900000010000000000000BRBBASACNOR3275
012018101878BBASK39     070BBAS  FM    ON      NM000R$  000000000019600000000002160000000000180000000000021000000000001850000000000130000000000022500037000000000000051700000000000010895600000000000399102018111900000010000000000000BRBBASACNOR3279
012018101878BBASK392    070BBAS  FM    ON      NM000R$  000000000025000000000002630000000000245000000000025400000000002450000000000185000000000025300005000000000000000700000000000000177800000000000389102018111900000010000000000000BRBBASACNOR3277
012018101878BBASK394    070BBASE       ON      NM000R$  000000000024500000000002560000000000223000000000024200000000002320000000000001000000000023500034000000000000064900000000000015721200000000000391602018111900000010000000000000BRBBASACNOR3277
012018101878BBASK397    070BBAS        ON      NM000R$  000000000023200000000002320000000000214000000000021800000000002140000000000000000000000021500006000000000000002700000000000000588600000000000394102018111900000010000000000000BRBBASACNOR3277
012018101878BBASK399    070BBASE       ON      NM000R$  000000000021100000000002240000000000188000000000020500000000002070000000000001000000000020700076000000000000156300000000000032185400000000000396602018111900000010000000000000BRBBASACNOR3277
012018101878BBASK404    070BBAS        ON      NM000R$  000000000017300000000001730000000000165000000000016700000000001670000000000001000000000090200005000000000000002400000000000000401300000000000404102018111900000010000000000000BRBBASACNOR3279
012018101878BBASK407    070BBASE       ON      NM000R$  000000000019200000000002060000000000167000000000018300000000001830000000000170000000000018300117000000000000274600000000000050297600000000000401602018111900000010000000000000BRBBASACNOR3275
012018101878BBASK419    070BBASE       ON      NM000R$  000000000015000000000001500000000000126000000000014000000000001400000000000001000000000030000023000000000000104300000000000014673000000000000411602018111900000010000000000000BRBBASACNOR3273
012018101878BBASK422    070BBASE       ON      NM000R$  000000000012100000000001290000000000115000000000012300000000001160000000000001000000000012000008000000000000005000000000000000617000000000000416602018111900000010000000000000BRBBASACNOR3275
012018101878BBASK427    070BBASE       ON      NM000R$  000000000012200000000001220000000000100000000000010800000000001050000000000100000000000015000017000000000000014300000000000001557300000000000421602018111900000010000000000000BRBBASACNOR3275
012018101878BBASK429    070BBAS        ON      NM000R$  000000000009300000000000980000000000074000000000008000000000000820000000000081000000000008500014000000000000016800000000000001346700000000000429102018111900000010000000000000BRBBASACNOR3279
012018101878BBASK434    070BBAS        ON      NM000R$  000000000007900000000000790000000000068000000000007100000000000680000000000055000000000000000005000000000000301800000000000021435900000000000434102018111900000010000000000000BRBBASACNOR3279
012018101878BBASK437    070BBASE       ON      NM000R$  000000000008600000000000860000000000084000000000008500000000000850000000000000000000000007600005000000000000005400000000000000460700000000000431602018111900000010000000000000BRBBASACNOR3274
012018101878BBASK44     070BBAS        ON      NM000R$  000000000004700000000000470000000000041000000000004200000000000420000000000040000000000005700007000000000000007000000000000000295000000000000449102018111900000010000000000000BRBBASACNOR3278
012018101878BBASK442    070BBAS        ON      NM000R$  000000000007000000000000760000000000057000000000006500000000000600000000000060000000000007000048000000000000083200000000000005476400000000000439102018111900000010000000000000BRBBASACNOR3277
012018101878BBASK46     070BBASE       ON      NM000R$  000000000004700000000000470000000000047000000000004700000000000470000000000018000000000007000001000000000000000200000000000000009400000000000451602018111900000010000000000000BRBBASACNOR3272
012018101878BBASK52     070BBAS  FM    ON      NM000R$  000000000016000000000001600000000000140000000000015500000000001400000000000133000000000017800024000000000000023300000000000003631400000000000409102018111900000010000000000000BRBBASACNOR3271
012018101878BBASK54     070BBAS        ON      NM000R$  000000000000800000000000080000000000006000000000000600000000000080000000000006000000000000800007000000000000023000000000000000151400000000000529102018111900000010000000000000BRBBASACNOR3271
012018101878BBASK83     070BBAS  FM    ON      NM000R$  000000000010900000000001130000000000085000000000009900000000000960000000000087000000000010100197000000000000247600000000000024608800000000000424102018111900000010000000000000BRBBASACNOR3271
012018101878BBASL35     070BBAS        ON      NM000R$  000000000058000000000005920000000000580000000000058500000000005920000000000112000000000069900010000000000000001400000000000000820100000000000343702018121700000010000000000000BRBBASACNOR3273
012018101878BBASL37     070BBASE       ON      NM000R$  000000000037200000000003800000000000365000000000037200000000003660000000000001000000000000000006000000000000005500000000000002050500000000000376202018121700000010000000000000BRBBASACNOR3278
012018101878BBASL386    070BBAS        ON      NM000R$  000000000033400000000003340000000000322000000000032700000000003220000000000000000000000000000003000000000000002800000000000000917200000000000383702018121700000010000000000000BRBBASACNOR3277
012018101878BBASL387    070BBAS  FM    ON      NM000R$  000000000035000000000003580000000000350000000000035300000000003580000000000000000000000000000002000000000000010000000000000003532000000000000378702018121700000010000000000000BRBBASACNOR3273
012018101878BBASL391    070BBAS  FM    ON      NM000R$  000000000030200000000003140000000000302000000000030700000000003140000000000000000000000035000016000000000000059500000000000018278800000000000388702018121700000010000000000000BRBBASACNOR3277
012018101878BBASL399    070BBASE       ON      NM000R$  000000000027100000000002710000000000271000000000027100000000002710000000000000000000000000000001000000000000001000000000000000271000000000000391202018121700000010000000000000BRBBASACNOR3273
012018101878BBASL402    070BBAS        ON      NM000R$  000000000028200000000002820000000000282000000000028200000000002820000000000240000000000000000001000000000000000500000000000000141000000000000393702018121700000010000000000000BRBBASACNOR3273
012018101878BBASL406    070BBASE       ON      NM000R$  000000000025000000000002500000000000222000000000023000000000002220000000000000000000000000000005000000000000014300000000000003295000000000000401202018121700000010000000000000BRBBASACNOR3275
012018101878BBASL407    070BBAS  FM    ON      NM000R$  000000000024500000000002500000000000240000000000024600000000002400000000000000000000000038600008000000000000024100000000000005932600000000000398702018121700000010000000000000BRBBASACNOR3273
012018101878BBASL416    070BBASE       ON      NM000R$  000000000020000000000002000000000000183000000000019900000000001830000000000000000000000000000003000000000000006100000000000001218300000000000411202018121700000010000000000000BRBBASACNOR3275
012018101878BBASL417    070BBAS  FM    ON      NM000R$  000000000019300000000002050000000000189000000000019600000000002000000000000000000000000000000023000000000000097300000000000019108000000000000408702018121700000010000000000000BRBBASACNOR3273
012018101878BBASL424    070BBAS  FM    ON      NM000R$  000000000017000000000001780000000000170000000000017200000000001780000000000000000000000030000012000000000000023300000000000004009400000000000418702018121700000010000000000000BRBBASACNOR3275
012018101878BBASL428    070BBAS        ON      NM000R$  000000000014800000000001480000000000134000000000014100000000001350000000000055000000000000000004000000000000000900000000000000126900000000000428702018121700000010000000000000BRBBASACNOR3279
012018101878BBASL436    070BBASE       ON      NM000R$  000000000010800000000001210000000000094000000000010300000000001210000000000000000000000000000023000000000000434300000000000044832900000000000436202018121700000010000000000000BRBBASACNOR3279
012018101878BBASL439    070BBASE       ON      NM000R$  000000000012200000000001290000000000122000000000012500000000001250000000000000000000000012500006000000000000006300000000000000789500000000000431202018121700000010000000000000BRBBASACNOR3273
012018101878BBASL44     070BBAS        ON      NM000R$  000000000011900000000001280000000000119000000000012400000000001280000000000027000000000000000065000000000000160000000000000019873700000000000433702018121700000010000000000000BRBBASACNOR3271
012018101878BBASL441    070BBASE       ON      NM000R$  000000000009500000000000950000000000094000000000009400000000000940000000000000000000000000000003000000000000293000000000000027726800000000000441202018121700000010000000000000BRBBASACNOR3279
012018101878BBASL443    070BBAS        ON      NM000R$  000000000009900000000000990000000000099000000000009900000000000990000000000000000000000000000001000000000000001000000000000000099000000000000443702018121700000010000000000000BRBBASACNOR3279
012018101878BBASL449    070BBASE       ON      NM000R$  000000000009500000000000950000000000095000000000009500000000000950000000000080000000000080000001000000000000000300000000000000028500000000000446202018121700000010000000000000BRBBASACNOR3277
012018101878BBASL459    070BBASE       ON      NM000R$  000000000005000000000000500000000000050000000000005000000000000500000000000050000000000000000001000000000000000300000000000000015000000000000451202018121700000010000000000000BRBBASACNOR3273
012018101878BBASL467    070BBAS        ON      NM000R$  000000000005000000000000500000000000050000000000005000000000000500000000000008000000000000000001000000000000000200000000000000010000000000000458702018121700000010000000000000BRBBASACNOR3273
012018101878BBASL67     070BBAS        ON      NM000R$  000000000022200000000002230000000000222000000000022200000000002230000000000000000000000000000005000000000000200100000000000044493200000000000403702018121700000010000000000000BRBBASACNOR3277
012018101882BBASM282    080BBASE       ON      NM000R$  000000000002000000000000200000000000020000000000002000000000000200000000000000000000000000000002000000000000001600000000000000032000000000000281702019012100000010000000000000BRBBASACNOR3278
012018101882BBASW189    080BBASE       ON      NM000R$  000000000000300000000000030000000000003000000000000300000000000030000000000002000000000000400002000000000000000200000000000000000600000000000189102018111900000010000000000000BRBBASACNOR3278
012018101882BBASW255    080BBASE       ON      NM000R$  000000000000900000000000090000000000003000000000000700000000000030000000000000000000000001500003000000000000000300000000000000002100000000000254102018111900000010000000000000BRBBASACNOR3279
012018101882BBASW274    080BBASE       ON      NM000R$  000000000000400000000000040000000000004000000000000400000000000040000000000002000000000002000001000000000000000200000000000000000800000000000271602018111900000010000000000000BRBBASACNOR3277
012018101882BBASW29     080BBASE       ON      NM000R$  000000000081200000000008120000000000812000000000081200000000008120000000000701000000000000000001000000000000000100000000000000081200000000000479102018111900000010000000000000BRBBASACNOR3271
012018101882BBASW299    080BBASE       ON      NM000R$  000000000001000000000000100000000000009000000000000900000000000090000000000005000000000001500002000000000000001200000000000000011000000000000296602018111900000010000000000000BRBBASACNOR3277
012018101882BBASW304    080BBASE       ON      NM000R$  000000000001200000000000120000000000012000000000001200000000000120000000000008000000000002500002000000000000021000000000000000252000000000000301602018111900000010000000000000BRBBASACNOR3277
012018101882BBASW31     080BBASE       ON      NM000R$  000000000001400000000000180000000000014000000000001400000000000180000000000010000000000004800004000000000000022400000000000000319600000000000311602018111900000010000000000000BRBBASACNOR3277
012018101882BBASW327    080BBASE       ON      NM000R$  000000000002300000000000230000000000021000000000002100000000000230000000000018000000000004500006000000000000002000000000000000043200000000000324102018111900000010000000000000BRBBASACNOR3277
012018101882BBASW332    080BBASE       ON      NM000R$  000000000003700000000000370000000000028000000000003200000000000280000000000015000000000005600004000000000000000400000000000000013000000000000326602018111900000010000000000000BRBBASACNOR3275
012018101882BBASW342    080BBASE       ON      NM000R$  000000000004000000000000400000000000040000000000004000000000000400000000000009000000000006500001000000000000000100000000000000004000000000000339102018111900000010000000000000BRBBASACNOR3277
012018101882BBASW347    080BBASE       ON      NM000R$  000000000004500000000000450000000000045000000000004500000000000450000000000015000000000006800001000000000000000100000000000000004500000000000344102018111900000010000000000000BRBBASACNOR3277
012018101882BBASW357    080BBASE       ON      NM000R$  000000000006000000000000600000000000060000000000006000000000000600000000000025000000000008000001000000000000000700000000000000042000000000000354102018111900000010000000000000BRBBASACNOR3277
012018101882BBASW362    080BBASE       ON      NM000R$  000000000007800000000000780000000000077000000000007700000000000770000000000055000000000007500002000000000000000300000000000000023200000000000356602018111900000010000000000000BRBBASACNOR3275
012018101882BBASW364    080BBASE       ON      NM000R$  000000000007100000000000710000000000071000000000007100000000000710000000000052000000000009000001000000000000000100000000000000007100000000000359102018111900000010000000000000BRBBASACNOR3275
012018101882BBASW367    080BBASE       ON      NM000R$  000000000006800000000000730000000000068000000000006900000000000730000000000001000000000010000014000000000000009200000000000000640600000000000361602018111900000010000000000000BRBBASACNOR3275
012018101882BBASW372    080BBASE  FM   ON      NM000R$  000000000009200000000001090000000000086000000000009400000000001090000000000080000000000020000099000000000000060900000000000005770600000000000369102018111900000010000000000000BRBBASACNOR3277
012018101882BBASW377    080BBASE       ON      NM000R$  000000000010000000000001040000000000100000000000010000000000001040000000000000000000000000000002000000000000010100000000000001010400000000000371602018111900000010000000000000BRBBASACNOR3275
012018101882BBASW379    080BBASE       ON      NM000R$  000000000011600000000001160000000000116000000000011600000000001160000000000000000000000000000001000000000000000100000000000000011600000000000374102018111900000010000000000000BRBBASACNOR3275
012018101882BBASW38     080BBASE       ON      NM000R$  000000000016300000000001630000000000163000000000016300000000001630000000000000000000000000000001000000000000001000000000000000163000000000000386602018111900000010000000000000BRBBASACNOR3277
012018101882BBASW382    080BBASE  FM   ON      NM000R$  000000000012900000000001290000000000129000000000012900000000001290000000000000000000000000000001000000000000000500000000000000064500000000000379102018111900000010000000000000BRBBASACNOR3277
012018101882BBASW384    080BBASE       ON      NM000R$  000000000014900000000001490000000000149000000000014900000000001490000000000000000000000000000001000000000000000600000000000000089400000000000381602018111900000010000000000000BRBBASACNOR3277
012018101882BBASW389    080BBASE       ON      NM000R$  000000000016000000000001600000000000160000000000016000000000001600000000000000000000000000000001000000000000000500000000000000080000000000000384102018111900000010000000000000BRBBASACNOR3275
012018101882BBASW39     080BBASE  FM   ON      NM000R$  000000000020900000000002280000000000204000000000021500000000002280000000000000000000000028900007000000000000001300000000000000279600000000000399102018111900000010000000000000BRBBASACNOR3279
012018101882BBASW392    080BBASE  FM   ON      NM000R$  000000000015500000000001750000000000155000000000016500000000001750000000000000000000000000000009000000000000304200000000000050210000000000000389102018111900000010000000000000BRBBASACNOR3277
012018101882BBASW394    080BBASE       ON      NM000R$  000000000016900000000001890000000000169000000000017700000000001890000000000000000000000000000003000000000000001200000000000000212800000000000391602018111900000010000000000000BRBBASACNOR3277
012018101882BBASW399    080BBASE       ON      NM000R$  000000000019900000000002120000000000198000000000020200000000002120000000000000000000000000000003000000000000002600000000000000526800000000000396602018111900000010000000000000BRBBASACNOR3277
012018101882BBASW407    080BBASE       ON      NM000R$  000000000022800000000002480000000000215000000000022800000000002440000000000010000000000000000037000000000000031500000000000007185000000000000401602018111900000010000000000000BRBBASACNOR3275
012018101882BBASW419    080BBASE       ON      NM000R$  000000000026500000000002650000000000264000000000026400000000002640000000000000000000000000000002000000000000025000000000000006620000000000000411602018111900000010000000000000BRBBASACNOR3273
012018101882BBASW44     080BBASE       ON      NM000R$  000000000055000000000005500000000000550000000000055000000000005500000000000000000000000000000006000000000000001000000000000000550000000000000449102018111900000010000000000000BRBBASACNOR3278
012018101882BBASW52     080BBASE       ON      NM000R$  000000000025900000000002590000000000259000000000025900000000002590000000000000000000000000000001000000000000000700000000000000181300000000000409102018111900000010000000000000BRBBASACNOR3271
012018101882BBASW70     080BBASE       ON      NM000R$  000000000000800000000000080000000000008000000000000800000000000080000000000006000000000001900001000000000000000300000000000000002400000000000294102018111900000010000000000000BRBBASACNOR3271
012018101882BBASW76     080BBASE       ON      NM000R$  000000000025000000000002500000000000250000000000025000000000002500000000000000000000000000000001000000000000005000000000000001250000000000000406602018111900000010000000000000BRBBASACNOR3271
012018101882BBASW77     080BBASE       ON      NM000R$  000000000007900000000000920000000000079000000000008200000000000900000000000084000000000000000011000000000000326000000000000026752900000000000364102018111900000010000000000000BRBBASACNOR3271
012018101882BBASW97     080BBASE       ON      NM000R$  000000000008700000000000870000000000083000000000008400000000000830000000000000000000000000000003000000000000005100000000000000432100000000000366602018111900000010000000000000BRBBASACNOR3271
012018101882BBASX184    080BBASE       ON      NM000R$  000000000000100000000000010000000000001000000000000100000000000010000000000000000000000000500002000000000000015000000000000000015000000000000181202018121700000010000000000000BRBBASACNOR3277
012018101882BBASX326    080BBASE       ON      NM000R$  000000000006800000000000680000000000037000000000005100000000000450000000000038000000000004700010000000000000001500000000000000076700000000000323702018121700000010000000000000BRBBASACNOR3277
012018101882BBASX356    080BBASE       ON      NM000R$  000000000008500000000000850000000000085000000000008500000000000850000000000000000000000000000001000000000000000300000000000000025500000000000351202018121700000010000000000000BRBBASACNOR3275
012018101882BBASX359    080BBASE       ON      NM000R$  000000000009500000000000950000000000095000000000009500000000000950000000000000000000000000000001000000000000000300000000000000028500000000000356202018121700000010000000000000BRBBASACNOR3277
012018101882BBASX364    080BBASE       ON      NM000R$  000000000010000000000001000000000000100000000000010000000000001000000000000000000000000000000001000000000000000200000000000000020000000000000358702018121700000010000000000000BRBBASACNOR3275
012018101882BBASX37     080BBASE       ON      NM000R$  000000000015200000000001700000000000152000000000015800000000001700000000000000000000000000000006000000000000005500000000000000869600000000000376202018121700000010000000000000BRBBASACNOR3278
012018101882BBASX374    080BBASE  FM   ON      NM000R$  000000000013000000000001300000000000130000000000013000000000001300000000000000000000000000000002000000000000004000000000000000520000000000000368702018121700000010000000000000BRBBASACNOR3275
012018101882BBASX386    080BBASE       ON      NM000R$  000000000018000000000001950000000000180000000000018600000000001950000000000000000000000000000003000000000000002800000000000000522000000000000383702018121700000010000000000000BRBBASACNOR3277
012018101882BBASX387    080BBASE  FM   ON      NM000R$  000000000015300000000001770000000000153000000000015600000000001770000000000000000000000000000002000000000000002900000000000000453300000000000378702018121700000010000000000000BRBBASACNOR3273
012018101882BBASX394    080BBASE       ON      NM000R$  000000000023100000000002310000000000231000000000023100000000002310000000000000000000000000000001000000000000000300000000000000069300000000000386202018121700000010000000000000BRBBASACNOR3273
012018101882BBASX399    080BBASE       ON      NM000R$  000000000024500000000002450000000000210000000000022700000000002280000000000000000000000000000005000000000000005400000000000001231000000000000391202018121700000010000000000000BRBBASACNOR3273
012018101882BBASX407    080BBASE  FM   ON      NM000R$  000000000025500000000002710000000000248000000000025800000000002710000000000248000000000000000005000000000000000600000000000000154900000000000398702018121700000010000000000000BRBBASACNOR3273
012018101882BBASX67     080BBASE       ON      NM000R$  000000000028000000000002800000000000280000000000028000000000002800000000000000000000000000000001000000000000000400000000000000112000000000000403702018121700000010000000000000BRBBASACNOR3277
012018101802BBDC3       010BRADESCO    ON      N1   R$  000000000293600000000029360000000002854000000000289800000000028540000000002854000000000287205254000000000002515300000000007291157400000000000000009999123100000010000000000000BRBBDCACNOR1685
012018101896BBDC3F      020BRADESCO    ON      N1   R$  000000000294000000000029400000000002854000000000289100000000028540000000002854000000000286400115000000000000002621000000000007579732000000000000009999123100000010000000000000BRBBDCACNOR1685
012018101802BBDC4       010BRADESCO    PN      N1   R$  000000000333700000000033500000000003274000000000330800000000032740000000003274000000000327931783000000000013878500000000045923175800000000000000009999123100000010000000000000BRBBDCACNPR8685
012018101896BBDC4F      020BRADESCO    PN      N1   R$  000000000335600000000033670000000003280000000000331200000000032810000000003280000000000328100284000000000000005854000000000019389768000000000000009999123100000010000000000000BRBBDCACNPR8685
012018101862BBDC4T      030BRADESCO    PN      N1018R$  000000000329400000000032950000000003294000000000329400000000032950000000000000000000000000000002000000000000395500000000001302841150000000000000009999123100000010000000000000BRBBDCACNPR8685
012018101862BBDC4T      030BRADESCO    PN      N1032R$  000000000331400000000033150000000003306000000000330600000000033070000000000000000000000000000006000000000000043900000000000145140444000000000000009999123100000010000000000000BRBBDCACNPR8685
012018101878BBDCD329    070BBDCE       PN      N1000R$  000000000038500000000003850000000000385000000000038500000000003850000000000000000000000000000002000000000000060100000000000023138500000000000329702019041500000010000000000000BRBBDCACNPR8685
012018101878BBDCD354    070BBDCE       PN      N1000R$  000000000020000000000002000000000000193000000000019300000000001930000000000000000000000000000003000000000000120100000000000023255000000000000354702019041500000010000000000000BRBBDCACNPR8685
012018101878BBDCK314    070BBDC        PN      N1000R$  000000000026200000000002620000000000262000000000026200000000002620000000000000000000000000000001000000000000000100000000000000026200000000000311002018111900000010000000000000BRBBDCACNPR8683
012018101878BBDCK325    070BBDC        PN      N1000R$  000000000017000000000001740000000000170000000000017200000000001740000000000110000000000000000016000000000000020000000000000003449200000000000324602018111900000010000000000000BRBBDCACNPR8683
012018101878BBDCK327    070BBDCE       PN      N1000R$  000000000016500000000001650000000000165000000000016500000000001650000000000120000000000000000002000000000000001500000000000000247500000000000327102018111900000010000000000000BRBBDCACNPR8683
012018101878BBDCK33     070BBDC  FM    PN      N1000R$  000000000016700000000001670000000000121000000000014300000000001210000000000001000000000017800072000000000000013100000000000001882600000000000329602018111900000010000000000000BRBBDCACNPR8683
012018101878BBDCK332    070BBDCE       PN      N1000R$  000000000015500000000001550000000000133000000000013900000000001330000000000000000000000000000007000000000000004700000000000000656500000000000332102018111900000010000000000000BRBBDCACNPR8683
012018101878BBDCK338    070BBDC  FM    PN      N1000R$  000000000012500000000001250000000000110000000000011900000000001120000000000096000000000012000007000000000000003900000000000000464400000000000338202018111900000010000000000000BRBBDCACNPR8684
012018101878BBDCK340    070BBDCE       PN      N1000R$  000000000009800000000001010000000000098000000000010000000000001010000000000000000000000030000003000000000000000700000000000000070400000000000340702018111900000010000000000000BRBBDCACNPR8684
012018101878BBDCK346    070BBDC        PN      N1000R$  000000000010200000000001020000000000083000000000008600000000000920000000000016000000000011300066000000000000316400000000000027524000000000000343202018111900000010000000000000BRBBDCACNPR8678
012018101878BBDCK350    070BBDC  FM    PN      N1000R$  000000000006300000000000640000000000052000000000006100000000000640000000000060000000000006400006000000000000004300000000000000266000000000000351902018111900000010000000000000BRBBDCACNPR8685
012018101878BBDCK360    070BBDC  FM    PN      N1000R$  000000000004200000000000430000000000036000000000003800000000000360000000000031000000000003900016000000000000031500000000000001216100000000000360802018111900000010000000000000BRBBDCACNPR8685
012018101878BBDCK369    070BBDC        PN      N1000R$  000000000003300000000000330000000000024000000000003100000000000240000000000024000000000000000018000000000000018100000000000000567800000000000366902018111900000010000000000000BRBBDCACNPR8678
012018101878BBDCK39     070BBDCE       PN      N1000R$  000000000012000000000001200000000000115000000000011700000000001150000000000000000000000012400003000000000000005000000000000000587500000000000335702018111900000010000000000000BRBBDCACNPR8671
012018101878BBDCK395    070BBDCE       PN      N1000R$  000000000008000000000000800000000000062000000000007100000000000620000000000060000000000009000023000000000000010300000000000000739900000000000349402018111900000010000000000000BRBBDCACNPR8672
012018101878BBDCK85     070BBDC        PN      N1000R$  000000000000900000000000090000000000009000000000000900000000000090000000000009000000000001100001000000000000010000000000000000090000000000000388002018111900000010000000000000BRBBDCACNPR8670
012018101878BBDCL349    070BBDC  FM    PN      N1000R$  000000000012500000000001250000000000125000000000012500000000001250000000000000000000000000000001000000000000000300000000000000037500000000000349002018121700000010000000000000BRBBDCACNPR8682
012018101878BBDCL379    070BBDCE       PN      N1000R$  000000000015400000000001540000000000140000000000014700000000001400000000000000000000000000000002000000000000000200000000000000029400000000000341502018121700000010000000000000BRBBDCACNPR8675
012018101878BBDCL401    070BBDC        PN      N1000R$  000000000008000000000000800000000000080000000000008000000000000800000000000000000000000000000011000000000000002100000000000000168000000000000362002018121700000010000000000000BRBBDCACNPR8674
012018101878BBDCL414    070BBDCE       PN      N1000R$  000000000004500000000000450000000000045000000000004500000000000450000000000000000000000000000001000000000000000100000000000000004500000000000373402018121700000010000000000000BRBBDCACNPR8674
012018101882BBDCW293    080BBDCE       PN      N1000R$  000000000002900000000000290000000000029000000000002900000000000290000000000000000000000000000002000000000000003400000000000000098600000000000292802018111900000010000000000000BRBBDCACNPR8684
012018101882BBDCW298    080BBDCE       PN      N1000R$  000000000004100000000000410000000000041000000000004100000000000410000000000016000000000000000001000000000000000100000000000000004100000000000297802018111900000010000000000000BRBBDCACNPR8684
012018101882BBDCW314    080BBDCE       PN      N1000R$  000000000006200000000000620000000000062000000000006200000000000620000000000000000000000000000001000000000000000300000000000000018600000000000311002018111900000010000000000000BRBBDCACNPR8683
012018101882BBDCW319    080BBDCE  FM   PN      N1000R$  000000000007800000000000960000000000078000000000007900000000000960000000000000000000000000000020000000000000111000000000000008775500000000000318502018111900000010000000000000BRBBDCACNPR8682
012018101882BBDCW32     080BBDCE  FM   PN      N1000R$  000000000005000000000000650000000000050000000000005000000000000650000000000000000000000007500026000000000000106500000000000005415000000000000308502018111900000010000000000000BRBBDCACNPR8670
012018101882BBDCW325    080BBDCE       PN      N1000R$  000000000010300000000001030000000000103000000000010300000000001030000000000000000000000000000001000000000000001200000000000000123600000000000324602018111900000010000000000000BRBBDCACNPR8683
012018101882BBDCW327    080BBDCE       PN      N1000R$  000000000012500000000001250000000000125000000000012500000000001250000000000000000000000000000003000000000000001000000000000000125000000000000327102018111900000010000000000000BRBBDCACNPR8683
012018101882BBDCW33     080BBDCE  FM   PN      N1000R$  000000000011200000000001240000000000112000000000011800000000001240000000000000000000000000000007000000000000004000000000000000472000000000000329602018111900000010000000000000BRBBDCACNPR8683
012018101882BBDCW332    080BBDCE       PN      N1000R$  000000000012800000000001400000000000128000000000013200000000001360000000000000000000000000000032000000000000016100000000000002133600000000000332102018111900000010000000000000BRBBDCACNPR8683
012018101882BBDCW346    080BBDCE       PN      N1000R$  000000000018800000000001880000000000188000000000018800000000001880000000000000000000000000000001000000000000010000000000000001880000000000000343202018111900000010000000000000BRBBDCACNPR8678
012018101882BBDCW39     080BBDCE       PN      N1000R$  000000000014500000000001640000000000144000000000014900000000001640000000000000000000000000000030000000000000016380000000000002442920000000000335702018111900000010000000000000BRBBDCACNPR8671
012018101882BBDCW64     080BBDCE       PN      N1000R$  000000000004200000000000420000000000042000000000004200000000000420000000000029000000000000000001000000000000001000000000000000042000000000000301602018111900000010000000000000BRBBDCACNPR8670
012018101882BBDCW86     080BBDCE       PN      N1000R$  000000000009000000000000900000000000090000000000009000000000000900000000000000000000000000000001000000000000000100000000000000009000000000000322102018111900000010000000000000BRBBDCACNPR8670
012018101882BBDCX331    080BBDCE       PN      N1000R$  000000000004000000000000470000000000040000000000004400000000000470000000000000000000000004800006000000000000000600000000000000026800000000000291502018121700000010000000000000BRBBDCACNPR8672
012018101882BBDCX36     080BBDCE       PN      N1000R$  000000000016000000000001600000000000160000000000016000000000001600000000000000000000000000000002000000000000000600000000000000096000000000000330202018121700000010000000000000BRBBDCACNPR8675
012018101882BBDCX376    080BBDCE  FM   PN      N1000R$  000000000019200000000001920000000000190000000000019100000000001900000000000000000000000000000002000000000000000200000000000000038200000000000339302018121700000010000000000000BRBBDCACNPR8674
012018101882BBDCX379    080BBDCE       PN      N1000R$  000000000021700000000002170000000000217000000000021700000000002170000000000000000000000026600001000000000000000500000000000000108500000000000341502018121700000010000000000000BRBBDCACNPR8675
012018101882BBDCX55     080BBDCE  FM   PN      N1000R$  000000000007900000000000910000000000079000000000008900000000000910000000000000000000000000000010000000000000005900000000000000530100000000000309702018121700000010000000000000BRBBDCACNPR8669
012018101812BBFI11B     010FII BB PROGRCI      MB   R$  000000016210500000001635340000000162000000000016307700000001632960000000163200000000016329600036000000000000000114000000000018590800000000000000009999123100000010000000000000BRBBFICTF006259
012018101812BBPO11      010FII BB PRGIICI           R$  000000001350100000000135990000000013453000000001350000000000134930000000013493000000001350603607000000000000010914000000000147346740000000000000009999123100000010000000000000BRBBPOCTF003171
012018101812BBRC11      010FII BB CORP CI           R$  000000001410900000000141990000000014050000000001410100000000141980000000014051000000001419900042000000000000000398000000000005612249000000000000009999123100000010000000000000BRBBRCCTF004185
012018101802BBRK3       010BR BROKERS  ON      NM   R$  000000000047100000000004860000000000424000000000045700000000004450000000000445000000000044700565000000000000366000000000000167355200000000000000009999123100000010000000000000BRBBRKACNOR4113
012018101896BBRK3F      020BR BROKERS  ON      NM   R$  000000000046700000000004850000000000431000000000045700000000004490000000000435000000000045400054000000000000001606000000000000735107000000000000009999123100000010000000000000BRBBRKACNOR4113
012018101814BBSD11      010BB ETF SP DVCI           R$  000000000600800000000060270000000005991000000000601100000000060010000000005984000000000600100014000000000000000600000000000003606740000000000000009999123100000010000000000000BRBBSDCTF000100
012018101802BBSE3       010BBSEGURIDADEON      NM   R$  000000000269300000000026950000000002632000000000265700000000026400000000002636000000000264920332000000000003973800000000010560814600000000000000009999123100000010000000000000BRBBSEACNOR5111
012018101896BBSE3F      020BBSEGURIDADEON      NM   R$  000000000272800000000027280000000002631000000000266400000000026570000000002641000000000265700243000000000000005119000000000013640730000000000000009999123100000010000000000000BRBBSEACNOR5111
012018101862BBSE3T      030BBSEGURIDADEON      NM060R$  000000000267000000000026710000000002670000000000267000000000026710000000000000000000000000000002000000000000000400000000000001068319000000000000009999123100000010000000000000BRBBSEACNOR5111
012018101878BBSEK269    070BBSEE       ON      NM000R$  000000000010000000000001000000000000078000000000009800000000000890000000000000000000000000000003000000000000006500000000000000643400000000000269602018111900000010000000000000BRBBSEACNOR5111
012018101878BBSEK27     070BBSE        ON      NM000R$  000000000007100000000000710000000000071000000000007100000000000710000000000050000000000000000001000000000000001000000000000000071000000000000272102018111900000010000000000000BRBBSEACNOR5111
012018101878BBSEK287    070BBSE  FM    ON      NM000R$  000000000003200000000000330000000000026000000000002700000000000330000000000020000000000007000006000000000000046200000000000001278600000000000287102018111900000010000000000000BRBBSEACNOR5111
012018101878BBSEK291    070BBSE  FM    ON      NM000R$  000000000001600000000000160000000000016000000000001600000000000160000000000010000000000003700001000000000000000500000000000000008000000000000297102018111900000010000000000000BRBBSEACNOR5111
012018101878BBSEK339    070BBSEE       ON      NM000R$  000000000000800000000000080000000000003000000000000700000000000030000000000001000000000001100008000000000000006000000000000000043000000000000339602018111900000010000000000000BRBBSEACNOR5111
012018101878BBSEK55     070BBSE  FM    ON      NM000R$  000000000013700000000001370000000000137000000000013700000000001370000000000010000000000000000001000000000000002000000000000000274000000000000257102018111900000010000000000000BRBBSEACNOR5111
012018101878BBSEK57     070BBSE  FM    ON      NM000R$  000000000005000000000000500000000000046000000000004600000000000460000000000022000000000005000002000000000000005100000000000000235000000000000277102018111900000010000000000000BRBBSEACNOR5111
012018101878BBSEL282    070BBSE        ON      NM000R$  000000000005700000000000580000000000057000000000005700000000000580000000000000000000000000000002000000000000002100000000000000119800000000000282102018121700000010000000000000BRBBSEACNOR5111
012018101882BBSEW269    080BBSEE  FM   ON      NM000R$  000000000011000000000001100000000000110000000000011000000000001100000000000000000000000000000001000000000000002000000000000000220000000000000269602018111900000010000000000000BRBBSEACNOR5111
012018101882BBSEW51     080BBSEE       ON      NM000R$  000000000000500000000000050000000000005000000000000500000000000050000000000000000000000000000001000000000000000700000000000000003500000000000217102018111900000010000000000000BRBBSEACNOR5111
012018101882BBSEW54     080BBSEE  FM   ON      NM000R$  000000000002800000000000300000000000028000000000002900000000000300000000000000000000000006000004000000000000014100000000000000414800000000000247102018111900000010000000000000BRBBSEACNOR5111
012018101882BBSEW55     080BBSEE  FM   ON      NM000R$  000000000005500000000000570000000000055000000000005500000000000570000000000000000000000006200002000000000000004500000000000000250500000000000257102018111900000010000000000000BRBBSEACNOR5111
012018101812BBVJ11      010FII C JARDIMCI           R$  000000000459900000000046000000000004501000000000451900000000045990000000004501000000000460000016000000000000000126000000000000569500000000000000009999123100000010000000000000BRBBVJCTF001189
012018101802BBYY34      010BEST BUY    DRN          R$  000000002683300000000268330000000026833000000002683300000000268330000000000000000000000000000001000000000000000100000000000002683300000000000000009999123100000010000000000000BRBBYYBDR005109
012018101812BCFF11      010FII BC FFII CI  ER       R$  000000000797900000000080000000000007922000000000798000000000080000000000007970000000000800000457000000000000021972000000000175357032000000000000009999123100000010000000000000BRBCFFCTF000206
012018101812BCIA11      010FII BCIA    CI           R$  000000001069900000000107000000000010695000000001069700000000107000000000010695000000001070000012000000000000000077000000000000823727000000000000009999123100000010000000000000BRBCIACTF005141
012018101812BCRI11      010FII BEES CRICI           R$  000000001054700000000105500000000010525000000001054800000000105500000000010549000000001055000072000000000000001712000000000018058756000000000000009999123100000010000000000000BRBCRICTF009141
012018101802BDLL4       010BARDELLA    PN           R$  000000000199000000000019900000000001814000000000197100000000018140000000001800000000000195000004000000000000001900000000000003745800000000000000009999123100000010000000000000BRBDLLACNPR8151
012018101810BEEF1       010MINERVA     DIR ORD NM   R$  000000000003000000000000350000000000024000000000002800000000000240000000000024000000000002701555000000000001394000000000000039424400000000000000009999123100000010000000000000BRBEEFD04OR5107
012018101896BEEF1F      020MINERVA     DIR ORD NM   R$  000000000003000000000000330000000000026000000000002900000000000260000000000026000000000003300048000000000000001425000000000000042684000000000000009999123100000010000000000000BRBEEFD04OR5107
012018101802BEEF3       010MINERVA     ON  ES  NM   R$  000000000053700000000005370000000000515000000000052200000000005160000000000516000000000051903600000000000001286500000000000671931100000000000000009999123100000010000000000000BRBEEFACNOR6108
012018101896BEEF3F      020MINERVA     ON  ES  NM   R$  000000000054700000000005470000000000516000000000052700000000005190000000000519000000000052100072000000000000001830000000000000965967000000000000009999123100000010000000000000BRBEEFACNOR6108
012018101862BEEF3T      030MINERVA     ON  ES  NM032R$  000000000053800000000005390000000000538000000000053800000000005390000000000000000000000000000002000000000000030000000000000016144695000000000000009999123100000010000000000000BRBEEFACNOR6108
012018101802BEES3       010BANESTES    ON  EJ       R$  000000000037600000000003790000000000371000000000037400000000003790000000000375000000000037900021000000000000020500000000000007681300000000000000009999123100000010000000000000BRBEESACNOR9316
012018101896BEES3F      020BANESTES    ON  EJ       R$  000000000037800000000003790000000000371000000000037700000000003790000000000379000000000038900012000000000000000113000000000000042619000000000000009999123100000010000000000000BRBEESACNOR9316
012018101802BEES4       010BANESTES    PN  EJ       R$  000000000037500000000003750000000000375000000000037500000000003750000000000375000000000038600004000000000000000800000000000000300000000000000000009999123100000010000000000000BRBEESACNPR6241
012018101896BEES4F      020BANESTES    PN  EJ       R$  000000000037000000000003700000000000370000000000037000000000003700000000000370000000000038800001000000000000000003000000000000001110000000000000009999123100000010000000000000BRBEESACNPR6241
012018101802BERK34      010BERKSHIRE   DRN          R$  000000007708800000000770880000000077088000000007708800000000770880000000077100000000007822100001000000000000000200000000000015417600000000000000009999123100000010000000000000BRBERKBDR002100
012018101896BERK34F     020BERKSHIRE   DRN          R$  000000007691400000000769140000000076914000000007691400000000769140000000076500000000008770000001000000000000000025000000000001922850000000000000009999123100000010000000000000BRBERKBDR002100
012018101810BIDI10      010BANCO INTER PN  REC N1   R$  000000000390900000000039090000000003909000000000390900000000039090000000003910000000000000000001000000000000000100000000000000390900000000000000009999123100000010000000000000BRBIDIR02PR3100
012018101896BIDI10F     020BANCO INTER PN  REC N1   R$  000000000380000000000038000000000003800000000000380000000000038000000000003800000000000390000001000000000000000010000000000000038000000000000000009999123100000010000000000000BRBIDIR02PR3100
012018101802BIDI4       010BANCO INTER PN      N1   R$  000000000385100000000039630000000003780000000000389000000000039260000000003920000000000392601685000000000000337600000000001313335400000000000000009999123100000010000000000000BRBIDIACNPR0102
012018101896BIDI4F      020BANCO INTER PN      N1   R$  000000000387000000000039800000000003781000000000389500000000039200000000003920000000000394900223000000000000005418000000000021103476000000000000009999123100000010000000000000BRBIDIACNPR0102
012018101862BIDI4T      030BANCO INTER PN      N1032R$  000000000389900000000039480000000003899000000000394500000000039480000000000000000000000000000004000000000000011500000000000045373385000000000000009999123100000010000000000000BRBIDIACNPR0102
012018101802BIIB34      010BIOGEN      DRN          R$  000000002056000000000205600000000020281000000002035000000000202810000000000000000000000000000002000000000000000400000000000008140300000000000000009999123100000010000000000000BRBIIBBDR001101
012018101896BIIB34F     020BIOGEN      DRN          R$  000000002036300000000203630000000020363000000002036300000000203630000000000000000000000000000001000000000000000090000000000001832670000000000000009999123100000010000000000000BRBIIBBDR001101
012018101802BIOM3       010BIOMM       ON      MA   R$  000000000080800000000008100000000000803000000000080800000000008100000000000809000000000081700013000000000000004000000000000003232700000000000000009999123100000010000000000000BRBIOMACNOR2106
012018101802BKBR3       010BK BRASIL   ON      NM   R$  000000000142700000000014590000000001425000000000143800000000014390000000001430000000000143901878000000000000817300000000001176063500000000000000009999123100000010000000000000BRBKBRACNOR4100
012018101896BKBR3F      020BK BRASIL   ON      NM   R$  000000000143800000000014580000000001429000000000143800000000014400000000001429000000000148100009000000000000000280000000000000402765000000000000009999123100000010000000000000BRBKBRACNOR4100
012018101802BLAK34      010BLACKROCK   DRN          R$  000000002478600000000247860000000024786000000002478600000000247860000000000000000000003200000001000000000000000200000000000004957200000000000000009999123100000010000000000000BRBLAKBDR003110
012018101896BLAK34F     020BLACKROCK   DRN          R$  000000002478600000000247860000000024786000000002478600000000247860000000000000000000000000000001000000000000000080000000000001982880000000000000009999123100000010000000000000BRBLAKBDR003110
012018101802BMEB3       010MERC BRASIL ON           R$  000000000061000000000006150000000000610000000000061000000000006150000000000605000000000065000002000000000000005400000000000003296000000000000000009999123100000010000000000000BRBMEBACNOR8194
012018101802BMEB4       010MERC BRASIL PN           R$  000000000056100000000006000000000000561000000000057300000000005750000000000566000000000057400018000000000000013200000000000007564600000000000000009999123100000010000000000000BRBMEBACNPR5199
012018101896BMIN4F      020MERC INVEST PN           R$  000000000115000000000011500000000001100000000000113100000000011000000000001100000000000149900002000000000000000055000000000000062250000000000000009999123100000010000000000000BRBMINACNPR1169
012018101802BMKS3       010BIC MONARK  ON           R$  000000002980000000000298010000000029800000000002980000000000298010000000029500000000002990000006000000000000000100000000000002980097000000000000009999123100000010000000000000BRBMKSACNOR9160
012018101812BMLC11B     010FII BMBRC LCCI  ER  MB   R$  000000000719900000000071990000000007001000000000705000000000070010000000007000000000000718000039000000000000005560000000000039202643000000000000009999123100000010000000000000BRBMLCCTF004181
012018101802BMYB34      010BRISTOLMYERSDRN          R$  000000002097700000000209770000000020664000000002074200000000206640000000000000000000000000000002000000000000000400000000000008296900000000000000009999123100000010000000000000BRBMYBBDR000120
012018101896BMYB34F     020BRISTOLMYERSDRN          R$  000000002081300000000208130000000020813000000002081300000000208130000000000000000000000000000002000000000000000080000000000001665040000000000000009999123100000010000000000000BRBMYBBDR000120
012018101802BNBR3       010NORD BRASIL ON           R$  000000000337100000000033710000000003370000000000337000000000033700000000003371000000000348800002000000000000000200000000000000674100000000000000009999123100000010000000000000BRBNBRACNOR8197
012018101896BNBR3F      020NORD BRASIL ON           R$  000000000359800000000035980000000003464000000000351900000000034640000000003360000000000350000003000000000000000014000000000000049274000000000000009999123100000010000000000000BRBNBRACNOR8197
012018101812BNFS11      010FII BANRISULCI           R$  000000001214900000000121500000000012100000000001213000000000121180000000012100000000001211800013000000000000000025000000000000303260000000000000009999123100000010000000000000BRBNFSCTF000173
012018101802BOAC34      010BANK AMERICADRN          R$  000000001042100000000104630000000010421000000001042300000000104630000000010463000000000000000002000000000000001500000000000015635700000000000000009999123100000010000000000000BRBOACBDR004132
012018101802BOBR4       010BOMBRIL     PN           R$  000000000029500000000002960000000000290000000000029300000000002920000000000290000000000029600009000000000000004400000000000001289400000000000000009999123100000010000000000000BRBOBRACNPR3128
012018101896BOBR4F      020BOMBRIL     PN           R$  000000000029900000000002990000000000286000000000029700000000002860000000000287000000000029800005000000000000000068000000000000020205000000000000009999123100000010000000000000BRBOBRACNPR3128
012018101802BOEI34      010BOEING      DRN          R$  000000013267500000001326750000000132675000000013267500000001326750000000000000000000000000000001000000000000000200000000000026535000000000000000009999123100000010000000000000BRBOEIBDR003126
012018101814BOVA11      010ISHARES BOVACI           R$  000000000826900000000082690000000008091000000000816600000000080910000000008090000000000809114822000000000003375860000000027570450820000000000000009999123100000010000000000000BRBOVACTF003103
012018101896BOVA11F     020ISHARES BOVACI           R$  000000000837100000000083710000000008100000000000818200000000081000000000008100000000000813200051000000000000000186000000000001521964000000000000009999123100000010000000000000BRBOVACTF003103
012018101878BOVAA82     070BOVA        CI        000R$  000000000043800000000004380000000000438000000000043800000000004380000000000000000000000000000001000000000000000900000000000000394200000000000820002019012100000010000000000000BRBOVACTF003103
012018101878BOVAA89     070BOVA        CI        000R$  000000000010000000000001000000000000100000000000010000000000001000000000000000000000000000000001000000000000000900000000000000090000000000000890002019012100000010000000000000BRBOVACTF003103
012018101878BOVAD100    070BOVA        CI        000R$  000000000005500000000000550000000000050000000000005000000000000500000000000000000000000000000007000000000000042700000000000002147500000000001000002019041500000010000000000000BRBOVACTF003103
012018101878BOVAD98     070BOVA        CI        000R$  000000000009500000000001000000000000095000000000009900000000001000000000000000000000000000000007000000000000042700000000000004257500000000000980002019041500000010000000000000BRBOVACTF003103
012018101878BOVAK71     070BOVA        CI        000R$  000000000108600000000010860000000001071000000000107600000000010710000000000000000000000000000004000000000000020000000000000021528000000000000710002018111900000010000000000000BRBOVACTF003103
012018101878BOVAK78     070BOVA        CI        000R$  000000000051000000000005100000000000510000000000051000000000005100000000000000000000000000000001000000000000000200000000000000102000000000000780002018111900000010000000000000BRBOVACTF003103
012018101878BOVAK80     070BOVA  FM    CI        000R$  000000000042000000000004200000000000396000000000041300000000003980000000000000000000000000000003000000000000012420000000000005137400000000000800002018111900000010000000000000BRBOVACTF003103
012018101878BOVAK81     070BOVA  FM    CI        000R$  000000000029500000000002950000000000284000000000028400000000002840000000000240000000000000000002000000000000101000000000000028695000000000000810002018111900000010000000000000BRBOVACTF003103
012018101878BOVAK82     070BOVA  FM    CI        000R$  000000000026100000000002610000000000220000000000025400000000002200000000000000000000000000000003000000000000003130000000000000796200000000000820002018111900000010000000000000BRBOVACTF003103
012018101878BOVAK83     070BOVA  FM    CI        000R$  000000000022600000000002260000000000183000000000019600000000001900000000000171000000000000000404000000000000040650000000000007979590000000000830002018111900000010000000000000BRBOVACTF003103
012018101878BOVAK840    070BOVA  FM    CI        000R$  000000000012600000000001260000000000126000000000012600000000001260000000000000000000000000000001000000000000100000000000000012600000000000000840002018111900000010000000000000BRBOVACTF003103
012018101878BOVAK85     070BOVA  FM    CI        000R$  000000000012600000000001260000000000096000000000010000000000001020000000000000000000000000000426000000000000105900000000000010661290000000000850002018111900000010000000000000BRBOVACTF003103
012018101878BOVAK86     070BOVA  FM    CI        000R$  000000000009000000000000900000000000082000000000008400000000000840000000000000000000000000000007000000000000022400000000000001882090000000000860002018111900000010000000000000BRBOVACTF003103
012018101878BOVAK88     070BOVA  FM    CI        000R$  000000000004300000000000430000000000043000000000004300000000000430000000000000000000000000000002000000000000002700000000000000116100000000000880002018111900000010000000000000BRBOVACTF003103
012018101878BOVAK89     070BOVA  FM    CI        000R$  000000000002000000000000200000000000020000000000002000000000000200000000000001000000000006000001000000000000002000000000000000040000000000000890002018111900000010000000000000BRBOVACTF003103
012018101878BOVAK90     070BOVA        CI        000R$  000000000003000000000000300000000000025000000000002900000000000250000000000001000000000000000003000000000000005600000000000000166600000000000900002018111900000010000000000000BRBOVACTF003103
012018101878BOVAL83     070BOVA  FM    CI        000R$  000000000026500000000002750000000000265000000000026900000000002750000000000000000000000000000007000000000000012000000000000003237700000000000830002018121700000010000000000000BRBOVACTF003103
012018101878BOVAL85     070BOVA  FM    CI        000R$  000000000020400000000002040000000000204000000000020400000000002040000000000000000000000000000001000000000000001500000000000000306000000000000850002018121700000010000000000000BRBOVACTF003103
012018101878BOVAL90     070BOVA        CI        000R$  000000000007500000000000750000000000059000000000006200000000000590000000000059000000000006500116000000000000352500000000000021962850000000000900002018121700000010000000000000BRBOVACTF003103
012018101878BOVAL95     070BOVA        CI        000R$  000000000002900000000000290000000000029000000000002900000000000290000000000004000000000002900002000000000000002000000000000000058000000000000950002018121700000010000000000000BRBOVACTF003103
012018101882BOVAM63     080BOVAE       CI        000R$  000000000002000000000000200000000000020000000000002000000000000200000000000000000000000000000001000000000000003000000000000000060000000000000630002019012100000010000000000000BRBOVACTF003103
012018101882BOVAM690    080BOVAE       CI        000R$  000000000006000000000000620000000000058000000000005900000000000620000000000000000000000000000003000000000000001600000000000000095600000000000690002019012100000010000000000000BRBOVACTF003103
012018101882BOVAW75     080BOVAE       CI        000R$  000000000005300000000000530000000000053000000000005300000000000530000000000000000000000050000001000000000000000500000000000000026500000000000750002018111900000010000000000000BRBOVACTF003103
012018101882BOVAW76     080BOVAE  FM   CI        000R$  000000000008500000000000850000000000084000000000008400000000000840000000000000000000000000000003000000000000020500000000000001742000000000000760002018111900000010000000000000BRBOVACTF003103
012018101882BOVAW77     080BOVAE  FM   CI        000R$  000000000008000000000001040000000000080000000000009900000000001020000000000000000000000070000006000000000000124600000000000012434000000000000770002018111900000010000000000000BRBOVACTF003103
012018101882BOVAW78     080BOVAE  FM   CI        000R$  000000000010000000000001280000000000100000000000012700000000001280000000000010000000000000000004000000000000019300000000000002464600000000000780002018111900000010000000000000BRBOVACTF003103
012018101882BOVAW79     080BOVAE  FM   CI        000R$  000000000014200000000001600000000000142000000000015500000000001600000000000115000000000018000008000000000000015900000000000002465200000000000790002018111900000010000000000000BRBOVACTF003103
012018101882BOVAW80     080BOVAE  FM   CI        000R$  000000000014100000000001410000000000141000000000014100000000001410000000000000000000000022000001000000000000000010000000000000001410000000000800002018111900000010000000000000BRBOVACTF003103
012018101882BOVAW81     080BOVAE  FM   CI        000R$  000000000021300000000002270000000000213000000000021400000000002270000000000000000000000000000002000000000000001000000000000000214400000000000810002018111900000010000000000000BRBOVACTF003103
012018101882BOVAW82     080BOVAE  FM   CI        000R$  000000000024200000000002690000000000242000000000026600000000002690000000000000000000000000000005000000000000120500000000000032092500000000000820002018111900000010000000000000BRBOVACTF003103
012018101882BOVAX70     080BOVAE       CI        000R$  000000000003500000000000400000000000035000000000003700000000000400000000000000000000000000000002000000000000000200000000000000007500000000000700002018121700000010000000000000BRBOVACTF003103
012018101882BOVAX74     080BOVAE       CI        000R$  000000000007100000000000890000000000071000000000008600000000000890000000000000000000000000000002000000000000017300000000000001503700000000000740002018121700000010000000000000BRBOVACTF003103
012018101882BOVAX82     080BOVAE  FM   CI        000R$  000000000026700000000002670000000000267000000000026700000000002670000000000000000000000000000001000000000000001500000000000000400500000000000820002018121700000010000000000000BRBOVACTF003103
012018101882BOVAX83     080BOVAE  FM   CI        000R$  000000000031000000000003100000000000310000000000031000000000003100000000000000000000000000000001000000000000003300000000000001023000000000000830002018121700000010000000000000BRBOVACTF003103
012018101882BOVAX84     080BOVAE  FM   CI        000R$  000000000036800000000004210000000000368000000000041600000000004210000000000000000000000000000003000000000000016800000000000006993300000000000840002018121700000010000000000000BRBOVACTF003103
012018101814BOVV11      010IT NOW IBOV CI           R$  000000000859000000000085900000000008410000000000850000000000084100000000008410000000000866200112000000000000238340000000002025897210000000000000009999123100000010000000000000BRBOVVCTF009100
012018101882BOVVX70     080BOVVE       CI        000R$  000000000009400000000000940000000000086000000000008800000000000860000000000060000000000008500003000000000000000080000000000000007060000000000700002018121700000010000000000000BRBOVVCTF009100
012018101802BPAC11      010BTGP BANCO  UNT          R$  000000000204700000000020470000000001985000000000200100000000019970000000001985000000000199701569000000000000267800000000000536026400000000000000009999123100000010000000000000BRBPACUNT006103
012018101896BPAC11F     020BTGP BANCO  UNT          R$  000000000207200000000020720000000001990000000000202300000000020140000000001991000000000201400031000000000000000499000000000001009734000000000000009999123100000010000000000000BRBPACUNT006103
012018101802BPAC5       010BTGP BANCO  PNA          R$  000000000067200000000006840000000000672000000000067800000000006840000000000672000000000068500002000000000000000200000000000000135600000000000000009999123100000010000000000000BRBPACACNPA0118
012018101802BPAN4       010BANCO PAN   PN      N1   R$  000000000017200000000001720000000000168000000000016900000000001700000000000169000000000017000030000000000000036800000000000006219300000000000000009999123100000010000000000000BRBPANACNPR1106
012018101896BPAN4F      020BANCO PAN   PN      N1   R$  000000000017000000000001700000000000169000000000016900000000001700000000000170000000000017100006000000000000000070000000000000011894000000000000009999123100000010000000000000BRBPANACNPR1106
012018101812BPFF11      010FII ABSOLUTOCI           R$  000000000896800000000090500000000008968000000000903400000000090500000000009030000000000905000058000000000000001301000000000011753614000000000000009999123100000010000000000000BRBPFFCTF002167
012018101808BPHA3       010BR PHARMA   ON      NM   R$  000000000016100000000001770000000000160000000000017200000000001740000000000174000000000017500351000000000000602800000000000104132400000000000000009999123100000010000000000000BRBPHAACNOR6105
012018101896BPHA3F      020BR PHARMA   ON      NM   R$  000000000016800000000001880000000000168000000000017700000000001880000000000165000000000017400009000000000000000106000000000000018777000000000000009999123100000010000000000000BRBPHAACNOR6105
012018101862BPHA3T      030BR PHARMA   ON      NM018R$  000000000017600000000001770000000000176000000000017600000000001770000000000000000000000000000002000000000000057000000000000010066109000000000000009999123100000010000000000000BRBPHAACNOR6105
012018101862BPHA3T      030BR PHARMA   ON      NM027R$  000000000017400000000001750000000000174000000000017400000000001750000000000000000000000000000002000000000000005000000000000000874089000000000000009999123100000010000000000000BRBPHAACNOR6105
012018101802BRAP3       010BRADESPAR   ON      N1   R$  000000000303800000000030830000000002930000000000300200000000029970000000002950000000000299700066000000000000009900000000000029724000000000000000009999123100000010000000000000BRBRAPACNOR5133
012018101896BRAP3F      020BRADESPAR   ON      N1   R$  000000000300900000000030090000000002941000000000295800000000029410000000002952000000000298900011000000000000000135000000000000399388000000000000009999123100000010000000000000BRBRAPACNOR5133
012018101802BRAP4       010BRADESPAR   PN      N1   R$  000000000342800000000034280000000003278000000000331300000000033000000000003300000000000330211816000000000003412500000000011305895900000000000000009999123100000010000000000000BRBRAPACNPR2133
012018101896BRAP4F      020BRADESPAR   PN      N1   R$  000000000342000000000034200000000003280000000000332100000000033000000000003300000000000335000129000000000000002610000000000008668864000000000000009999123100000010000000000000BRBRAPACNPR2133
012018101862BRAP4T      030BRADESPAR   PN      N1032R$  000000000330300000000033190000000003303000000000331800000000033190000000000000000000000000000004000000000000025200000000000083614534000000000000009999123100000010000000000000BRBRAPACNPR2133
